:100000000C94510A0C94790A0C94790A0C940024EB
:100010000C9400240C9400240C94790A0C94790A12
:100020000C94790A0C94790A0C94790A0C94790A44
:100030000C94790A0C94790A0C94790A0C94790A34
:100040000C945E230C94790A0C94CE230C94A82370
:100050000C94790A0C94790A0C94790A0C94790A14
:100060000C9478240C94790AAED580A83FD3004034
:100070008D142002A1C8DA12817FD9F1DB40A4A639
:10008000AF546F6F44656570004E6F4D656D6F7254
:100090007900496E76616C6964496E7075740049C7
:1000A0006E636F6D706C657465496E707574004534
:1000B0006D707479496E707574004F6B00CDCCCC47
:1000C0003D0AD7233C17B7D13877CC2B329595E62C
:1000D000241FB14F0A000020410000C84200401C0C
:1000E0004620BCBE4CCA1B0E5AAEC59D7400030C04
:1000F0000F30333C3FC0C3CCCFF0F3FCFF00000512
:10010000072061000000000000005F000000070001
:100110000700147F147F14242A7F2A1223130864F3
:100120006236495522500005030000001C224100A0
:100130000041221C00082A1C2A0808083E08080062
:100140005030000008080808080060600000201017
:100150000804023E5149453E00427F400042615141
:1001600049462141454B311814127F10274545451A
:10017000393C4A4949300171090503364949493634
:10018000064949291E003636000000563600000098
:1001900008142241141414141441221408000201FA
:1001A000510906324979413E7E1111117E7F49493C
:1001B00049363E414141227F4141221C7F49494904
:1001C000417F090901013E414151327F0808087F02
:1001D00000417F41002040413F017F081422417FC0
:1001E000404040407F0204027F7F0408107F3E4170
:1001F00041413E7F090909063E4151215E7F0919AF
:100200002946464949493101017F01013F404040AB
:100210003F1F2040201F7F2018207F631408146395
:100220000304780403615149454300007F414102C2
:100230000408102041417F000004020102044040F4
:10024000404040000102040020545454787F484448
:1002500044383844444420384444487F3854545443
:1002600018087E090102081454543C7F08040478DD
:1002700000447D40002040443D00007F10284400A1
:10028000417F40007C041804787C080404783844DA
:100290004444387C14141408081414187C7C080492
:1002A00004084854545420043F4440203C4040201B
:1002B0007C1C2040201C3C4030403C4428102844FA
:1002C0000C5050503C4464544C44000836410000EB
:1002D000007F0000004136080008082A1C08081C9E
:1002E0002A0808000609090668001980400065729E
:1002F000726F722073656E645374617465203A2066
:10030000000A52756E204D656E752E2E2E002E0041
:100310004279204E697A616D20416C6261720020E1
:100320004543472050726F6A6563742056322E3001
:1003300020002057656C636F6D6520000000050785
:100340002060000000000000005F000000070007C0
:1003500000147F147F14242A7F2A12231308646256
:1003600036495620500008070300001C22410000B7
:1003700041221C002A1C7F1C2A08083E0808008015
:1003800070300008080808080000606000201008AD
:1003900004023E5149453E00427F400072494949AE
:1003A000462141494D331814127F102745454539E0
:1003B0003C4A4949314121110907364949493646E4
:1003C0004949291E000014000000403400000008C4
:1003D0001422411414141414004122140802015967
:1003E00009063E415D594E7C1211127C7F494949F4
:1003F000363E414141227F4141413E7F4949494189
:100400007F090909013E414151737F0808087F00B7
:10041000417F41002040413F017F081422417F403D
:100420004040407F021C027F7F0408107F3E414114
:10043000413E7F090909063E4151215E7F09192984
:1004400046264949493203017F01033F4040403F6E
:100450001F2040201F3F4038403F631408146303AF
:10046000047804036159494D43007F41414102042E
:10047000081020004141417F040201020440404035
:100480004040000307080020545478407F2844442B
:10049000383844444428384444287F385454541845
:1004A00000087E090218A4A49C787F080404780040
:1004B000447D40002040403D007F10284400004122
:1004C0007F40007C047804787C0804047838444435
:1004D0004438FC1824241818242418FC7C0804042C
:1004E00008485454542404043F44243C4040207C95
:1004F0001C2040201C3C4030403C44281028444CE8
:100500009090907C4464544C4400083641000000B4
:10051000770000004136080002010204023C262355
:10052000263C0A53746172742053706C6173684D79
:1005300061696E2E2E2E0057694669204D6F6465E5
:10054000203A200053656E736F72203A2000496E86
:10055000697469616C697A696E672E2E2E0A000AC9
:10056000496E697469616C697A696E672E2E2E0016
:10057000205265636F7264203A200046696C6520E2
:100580003A20001A4C0A0D206002010306050909F1
:10059000010303050702030103050305050605051D
:1005A0000505050102060606040A080707080706EE
:1005B0000808030408070B080806080805070807C9
:1005C0000B080807030302060602050504060404D7
:1005D00005060302060309060506060404030606CB
:1005E00009050705030103050600000000FE100EC3
:1005F000000E000000D0785650F856180000180081
:10060000001C12FF22C408103810080C128C403055
:1006100008864080001008000000081008C0203C38
:10062000D28A463010000810101008101010080E62
:1006300000F00C02083040020CF040300814083E74
:1006400008140000000000202020FC2020200000D2
:100650000008000000000050308080800000000092
:100660001000F806180000FC020202FC081010102E
:100670000804FE00101810040282423C10181010EA
:100680001804022232CC1010101008C0A09884FE6A
:1006900080000000001800000C0A12E21010100880
:1006A00000F0281412E20810101008040202F20EE2
:1006B00000001800008C5222528C08101010083CC8
:1006C0004242C27C10100800001010100050302070
:1006D000505050888800000000000050505050508A
:1006E000500000000000008888505050200000009A
:1006F0000000000CC2221C00100000F008E4120AE6
:100700000A927A04F818204890908888904820002F
:1007100080784658608000101810000010181002F1
:10072000FE2222223CC010181010101008F80402FB
:100730000202048E0008101010080002FE020202DD
:100740000204F8101810101010080002FE22227285
:1007500006001018101010100802FE222272061057
:100760001810000000F80402020224EE2000081015
:10077000101010080002FE22202022FE0210181085
:10078000000010181002FE021018100002FE0218DD
:1007900010080002FE225088060202101810000005
:1007A00018101002FE0200000000101810101010A7
:1007B0000802FE0618E000E01806FE0210181000FD
:1007C0000018000010181002FE08106082FE0210CF
:1007D00018100000001800F8040202020204F800D9
:1007E0000810101010080002FE2222221C101810FF
:1007F000000000F8040202020204F80008101030A1
:1008000050484002FE2222E21C0000101810000096
:100810000810100C122222C618101010080602022E
:10082000FE0202060000101810000002FE02000086
:1008300002FE020008101010100800021EE200E282
:100840001E0200000018000000021EE280621EE28C
:1008500080720E0200000018000000180000000264
:10086000068A70708A060210181000001018100214
:10087000063AC0300A0602000010181000000000FE
:100880008642320A068210181010101018FE02025A
:1008900078404006F80000001802FE4078100C0274
:1008A000020C1000000000000000000000000080AA
:1008B000808080808004080000A05050E000081074
:1008C000101810FE201010E00810101008E0101092
:1008D0003008101008E0101022FE00081010081850
:1008E00010E05050600810100810FC120210181090
:1008F000006090907010689090906002FE2010E070
:100900000010181000181010F20010181010F280CB
:100910007802FE40B0100010181000181002FE00FF
:1009200010181010F02010E02010E0001018100037
:10093000181000181010F02010E000101810001807
:1009400010E0101010E0081010100810F020101027
:10095000E080F888101008E0101020F00008101057
:1009600088F88010F0201010181000605090B01817
:1009700010100810FC1000181010F00010F000000B
:10098000081010181030D000C030100000180000FF
:100990000010F00090F010C0301000001800001897
:1009A0000000001030C030101018001810107090A7
:1009B00000D03010808048300800003010D0301057
:1009C000101810101840BC02003840FE7802BC40DD
:1009D0004038008040C080400000000000FC04045B
:1009E0000404FC1810101010186572726F722073D6
:1009F000656E644461746153656E736F72203A2052
:100A0000006D656E657261706B616E20636F6E66FE
:100A1000696700486172642052657365742075745B
:100A20006B0073657474696E672E2053696C61681E
:100A30006B616E0075746B204B656D62616C692033
:100A40006B650064616E2074656B616E2053656C2C
:100A50006563740054656B616E204F4B2075746B39
:100A6000206D656E6767616E7469005265636F76AD
:100A7000657279203A20006D656E657261706B61F8
:100A80006E20636F6E66696700486172642052650C
:100A90007365742075746B0073657474696E672E6A
:100AA0002053696C61686B616E0075746B204B65D7
:100AB0006D62616C69206B650064616E2074656BAA
:100AC000616E2053656C6563740054656B616E20C4
:100AD0004F4B2075746B206D656E6767616E74692E
:100AE0000057694669204D6F6465203A2000BA00BE
:100AF000AF009F009200890081006572726F7220C2
:100B00006765744950203A2000687474703A2F2F3A
:100B100000427569642044617465203A200046698A
:100B2000726D77617265203A2000496E666F726D52
:100B30006174696F6E000E9E0A0A20600201020550
:100B4000050705010202030502020104050404046D
:100B50000504040404040102040405030705040554
:100B60000503030505010304030705060407040440
:100B70000505060905050402040203050204040331
:100B8000040403040401020401070405040402032D
:100B9000030404060404030301020404000000002B
:100BA000BE0006060000287C28FC2800000000008B
:100BB000889496A44000000000001E927E10FC92D3
:100BC000F000000000000000FC92AA44B000000009
:100BD00000000600FC02408002FC80400C1E0C005D
:100BE00000002020F820200000000000008080404D
:100BF00020200000800080601C02400000007884FB
:100C000084847800000000008884FC8000000000DC
:100C100084C4A49C000000008494946C0000000034
:100C200060504CFC4000000000009C949464000064
:100C30000000789494740000000004C4340C000098
:100C40000000EC94B4EC00000000B8A4A47800000C
:100C50000000880000908040102828440000000018
:100C60005050505000000000888850502000000074
:100C7000000002921E000000F00874547444380012
:100C800040404040000080704C5CE00000000000EC
:100C9000FC94946C0000000078CC84844800000030
:100CA0000000FC8484CC780000000000FC949400D8
:100CB0000000FC141400000078CC84A4EC000000B8
:100CC0000000FC101010FC0000000000FC00808000
:100CD000FC000000FC30488400000000FC80800024
:100CE0000000FC0C7080700CFC0000000000000094
:100CF000FC0C30C0FC0000000000788C8484C478B8
:100D0000000000000000FC2424180000000078CC43
:100D10008484C4F80000000000000040FC2424D8B3
:100D2000000000009894A464000000000404FC0487
:100D30000400000000007C8080807C000000000037
:100D40000438C0E018040000000000000438C0703F
:100D50000C70C0380400000000000000000084484F
:100D600030688400000000000418E018040000004F
:100D7000000084E4948C00000000FE02C08006188D
:100D8000E0000000004002FE80C0180438000000AF
:100D90000000000000808080808001020000E8A840
:100DA000A8F800000000FE8888700000000070882D
:100DB00088000000708888FE0000000070A8A8B0BD
:100DC0000000000008FE0A00000078A8A8B8C08053
:100DD00080C0FE0808F800000000FA0000FA80C099
:100DE000FE20508800000000FE00F80808F80808FF
:100DF000F800000000000000F80808F800000000FB
:100E000070888888700000000000F8888870C00032
:100E10000000708888F8000000C0F808000098A85A
:100E2000E800000008FC88000000F88080F800005E
:100E3000000018E0E0180000000038C0307880782A
:100E4000000000000000887070880000000008703A
:100E5000C03800804000C8A89800000020DE0200D2
:100E6000C080FEC0DE20C0000C04080C00000000A2
:100E7000FC94B4FC000000000000000024002700E7
:100E80002A0000000008000201000003040700001F
:100E90000000000000004D454E550013220A0B20B3
:100EA00060020103060408070102020505020301AE
:100EB00005050505050505050505050102050505E9
:100EC00004090705050604040606010305040806CF
:100ED00006050705040506070B06050602050205BB
:100EE00006020505040505040505010204010805BF
:100EF00005050503040405050905050303010305AC
:100F000006000000007E200E000E00000040E85E9B
:100F1000E85E080020002000008C1223C40060203E
:100F2000000C12D22CD02C22C00020000000202067
:100F300000C02C1232CCC020002020200000200E47
:100F400000F80620C006F8C02014083E081400006F
:100F50000000002020F82020000000000000008099
:100F60006020202000000000200080700C03C020C2
:100F7000000000FC020202FC00202020000402FE0F
:100F800000002020202020048242221C202020203B
:100F90002084121212EC0020202000605846FE40EF
:100FA00000000020009E121212E20020202000F813
:100FB000141212E200202020000282621A06002091
:100FC000000000EC121212EC00202020001C222253
:100FD000A27C2020200000082000088060202050F3
:100FE0005088000000000050505050500000000099
:100FF00000885050202000000000000272120C00F7
:10100000200000F00864928A4ABA847800204040A8
:10101000404000000080605846586080200000007A
:10102000000020FE12121CE02020202000FC020202
:1010300002840020202000FE02020284782020206A
:10104000200000FE12121220202020FE1212122078
:101050000000007884022222E4000020202000FE0C
:1010600010101010FE200000000020FE200000FEE6
:10107000202000FE1028C4022000000020FE0000F6
:101080000020202020FE067880807806FE200000C8
:101090002020000020FE06186080FE2000000020B6
:1010A00020FC02020202FC002020202000FE22225E
:1010B000221C2000000000FC02020202FC000020B2
:1010C0002020204040FE2222629C20000000208C34
:1010D0001222C4002020000202FE020200002000B2
:1010E00000FE00000000FE00202020200006186006
:1010F000806018060000002000000006788060185C
:101100000618608078060000200000000000200023
:101110000002CC3030CC022000000000200618E095
:1011200018060000200000824222120A0620202019
:10113000202020FE02E080030C70800000000020D0
:10114000C002FE80E0100C020C1000000000000045
:10115000000000000080808080808001020000C8C4
:10116000282828F00020202020FE080808F0202051
:10117000202000F008080800202020F0080808FEC1
:101180000020202020F028282830002020202008BF
:10119000FC0A0A00200000B048483808C0A0A0A0FF
:1011A00040FE100808F02000000020FA2000FA801D
:1011B00060FE20D00820000020FE20F8100808F073
:1011C0000808F02000000020000020F8100808F0B7
:1011D0002000000020F0080808F00020202000F87F
:1011E000080808F0E020202000F0080808F8002097
:1011F0002020E0F80808200000302848C8202020DF
:101200000008FC080800002020F8000080F80020FA
:101210002000201860806018000020000018608006
:1012200060186080601800002000000020000008A6
:10123000906090082000000020186080601800C0B6
:1012400020000088681820202020DC02006080FE3A
:10125000E002DC2080600010081810080000000088
:1012600000FE020A7A02FE2020202020205365740E
:1012700074696E67730000000507206100000000BC
:101280000000005F00000007000700147F147F14B7
:10129000242A7F2A122313086462364955225000FB
:1012A00005030000001C2241000041221C00082A06
:1012B0001C2A0808083E08080050300000080808EA
:1012C0000808006060000020100804023E514945F3
:1012D0003E00427F400042615149462141454B3129
:1012E0001814127F1027454545393C4A49493001B9
:1012F000710905033649494936064949291E003610
:101300003600000056360000000814224114141460
:10131000141441221408000201510906324979418E
:101320003E7E1111117E7F494949363E414141229D
:101330007F4141221C7F494949417F090901013E02
:10134000414151327F0808087F00417F4100204021
:10135000413F017F081422417F404040407F02040A
:10136000027F7F0408107F3E4141413E7F09090909
:10137000063E4151215E7F091929464649494931B6
:1013800001017F01013F4040403F1F2040201F7F5F
:101390002018207F63140814630304780403615148
:1013A00049454300007F4141020408102041417F2C
:1013B00000000402010204404040404000010204D9
:1013C0000020545454787F484444383844444420DE
:1013D000384444487F3854545418087E09010208A0
:1013E0001454543C7F0804047800447D400020409D
:1013F000443D00007F10284400417F40007C0418D9
:1014000004787C0804047838444444387C14141468
:1014100008081414187C7C08040408485454542008
:10142000043F4440203C4040207C1C2040201C3C89
:101430004030403C44281028440C5050503C4464F8
:10144000544C44000836410000007F000000413643
:10145000080008082A1C08081C2A080800060909B0
:1014600006000000002300260029000000000025DF
:101470000028002B000404040404040404020202F3
:1014800002020203030303030301020408102040C5
:101490008001020408102001020408102000BB256E
:1014A000972511241FBECFEFD8E0DEBFCDBF25E0CA
:1014B000AEEDB2E001C01D92A735B207E1F712E030
:1014C000A0E0B1E0EEE0F9E602C005900D92AE3D7D
:1014D000B107D9F71AE0C0E5DAE004C02197FE01B0
:1014E0000E94D731CF34D107C9F70E9460270C94EE
:1014F0007A340C9400009093090580930805FC0150
:1015000024913196E491F22F319719F4109203054A
:10151000089581E0809303050895833081F028F4D5
:10152000813099F08230A9F008958730A9F0883091
:10153000C9F08430B1F4809180008F7D03C0809128
:1015400080008F7780938000089584B58F7784BD65
:10155000089584B58F7DFBCF8091B0008F77809305
:10156000B00008958091B0008F7DF9CFCF93DF93C5
:10157000282F30E0F901EE57F14F8491F901E75738
:10158000FB4ED491F901EB58FB4EC491CC23A1F052
:1015900081110E948D0AEC2FF0E0EE0FFF1FEF5932
:1015A000FB4EA591B491EC91ED2381E090E009F41C
:1015B00080E0DF91CF91089580E090E0FACF8091B4
:1015C000DA040E94B60A019751F18091DB040E946F
:1015D000B60A019721F18091D9048E3008F08E501F
:1015E0008770806480937C0080917A00806480930F
:1015F0007A0080917A0086FDFCCF6091780070912E
:101600007900072E000C880B990B0E941D30609307
:10161000DC047093DD048093DE049093DF0460911A
:10162000DC047091DD048091DE049091DF04089564
:101630001F93CF93DF93282F30E0F901EE57F14F3E
:101640008491F901E757FB4ED491F901EB58FB4E19
:10165000C491CC23A9F0162F81110E948D0AEC2F82
:10166000F0E0EE0FFF1FE559FB4EA591B4918FB747
:10167000F894EC91111108C0D095DE23DC938FBF54
:10168000DF91CF911F910895DE2BF8CFCF93DF9399
:1016900090E0FC01E757FB4E24918B589B4EFC01D8
:1016A00084918823C9F090E0880F991FFC01E858C5
:1016B000F14FA591B491FC01E559FB4EC591D49130
:1016C00061110DC09FB7F8948C91209582238C9363
:1016D0008881282328839FBFDF91CF9108956230AE
:1016E00051F49FB7F8943C91822F809583238C937B
:1016F000E8812E2BEFCF8FB7F894EC912E2B2C9303
:101700008FBFEACF3FB7F8948091A7039091A803C9
:10171000A091A903B091AA0326B5A89B05C02F3FAD
:1017200019F00196A11DB11D3FBFBA2FA92F982F07
:101730008827BC01CD01620F711D811D911D42E002
:10174000660F771F881F991F4A95D1F708958F92CA
:101750009F92AF92BF92CF92DF92EF92FF924B0196
:101760005C010E94820B6B017C010E94820B6C1950
:101770007D098E099F09683E734081059105A8F394
:1017800021E0821A9108A108B10888EEC80E83E012
:10179000D81EE11CF11C81149104A104B10429F7A5
:1017A000FF90EF90DF90CF90BF90AF909F908F9081
:1017B00008952FB7F8946091A3037091A4038091CA
:1017C000A5039091A6032FBF0895CF92DF92EF92C9
:1017D000FF921F93CF93DF93EC0188810E94B60A9A
:1017E000182F0E94D90BCA80DB80EC80FD806C1919
:1017F0007D098E099F096A3F71058105910558F0A1
:10180000113049F40E94D90B6A837B838C839D83BA
:101810008A858F5F8A870E94D90BCE80DF80E8841B
:10182000F9846C197D098E099F0960327E44810517
:10183000910548F0111107C00E94D90B6E837F8378
:10184000888799871A868A85DF91CF911F91FF90AB
:10185000EF90DF90CF90089508950895AF92BF92D2
:10186000CF92DF92EF92FF920F931F93CF93DF936C
:101870006C017B018B01040F151FEB015E01AE189B
:10188000BF08C017D10759F06991D601ED91FC91BD
:101890000190F081E02DC6010995892B79F7C501EA
:1018A000DF91CF911F910F91FF90EF90DF90CF903C
:1018B000BF90AF900895FC01448155816081718192
:1018C0008AEF94E00C942E0CFC01538D448D252F4F
:1018D00030E0842F90E0821B930B541710F0CF96CA
:1018E000089501970895FC01918D828D981761F0FC
:1018F000A28DAE0FBF2FB11D5D968C91928D9F5F13
:101900009F73928F90E008958FEF9FEF0895FC01F1
:10191000918D828D981731F0828DE80FF11D858DA4
:1019200090E008958FEF9FEF0895FC01918D228D37
:10193000892F90E0805C9F4F821B91098F739927BC
:1019400008958BEF93E00E94950C21E0892B09F418
:1019500020E0822F089580E090E0892B29F00E94FA
:10196000A10C81110C9400000895FC01A48DA80F16
:10197000B92FB11DA35ABF4F2C91848D90E00196D1
:101980008F739927848FA689B7892C93A089B189F1
:101990008C91837080648C93938D848D981306C092
:1019A0000288F389E02D80818F7D80830895EF92F6
:1019B000FF920F931F93CF93DF93EC0181E0888F09
:1019C0009B8D8C8D98131AC0E889F989808185FFD9
:1019D00015C09FB7F894EE89FF896083E889F9897B
:1019E00080818370806480839FBF81E090E0DF917D
:1019F000CF911F910F91FF90EF900895F62E0B8DD0
:101A000010E00F5F1F4F0F731127E02E8C8D8E118A
:101A10000CC00FB607FCFACFE889F989808185FFF1
:101A2000F5CFCE010E94B50CF1CFEB8DEC0FFD2F61
:101A3000F11DE35AFF4FF0829FB7F8940B8FEA89AC
:101A4000FB8980818062CFCF0F931F93CF93DF9369
:101A50008C01D0E0C0E0F801EC0FFD1F649166231B
:101A600041F08BEF93E00E94D70C892B11F0219667
:101A7000F2CFCE01DF91CF911F910F910895CF93B7
:101A8000DF93EC01888D8823B9F0AA89BB89E889A6
:101A9000F9898C9185FD03C0808186FD0DC00FB64C
:101AA00007FCF7CF8C9185FFF2CF808185FFEDCFCA
:101AB000CE010E94B50CE9CFDF91CF91089520911E
:101AC0001405309115052817390771F49091820398
:101AD00080918303981741F0E0918203F0E0EE5B80
:101AE000FC4F808190E008958FEF9FEF0895089557
:101AF000EF92FF920F931F93CF93DF93DC015C96DD
:101B0000ED90FC905D97E114F10479F481E090E0B0
:101B100013969C938E93129790E080E0DF91CF9183
:101B20001F910F91FF90EF9008955196ED91FC91C8
:101B3000529750968C915097982F90950FB75E962C
:101B40002C915E97122F127021FD6095F8942081E0
:101B5000112319F1282B2083E7012197F1F728E0C1
:101B6000462F50E0308160FF1AC0382B3083E701E8
:101B70002197F1F7BA0175956795215089F71123DF
:101B800081F08081892380830FBF5C968D919C9129
:101B90000197F1F781E090E0C1CF2923DCCF392311
:101BA000E5CF9081892BEFCF209114053091150559
:101BB0002817390761F4809183032091820390E014
:101BC000805C9F4F821B91098F739927089590E045
:101BD00080E00895209114053091150528173907E4
:101BE000B9F49091820380918303981789F0E09172
:101BF0008203F0E0EE5BFC4F80812091820330E0B5
:101C00002F5F3F4F2F7333272093820390E0089577
:101C10008FEF9FEF0895CF93DF93EC018D8588239D
:101C200029F081508D87DF91CF9108959C818E811D
:101C30009817C8F788896827E881F9810084F185B9
:101C4000E02D42E0CE0109958C818F5F8C83EBCF34
:101C5000DC01ED91FC910084F185E02D40E00994D8
:101C60000F931F93CF938C01FC016483C085C60F33
:101C70006C2F6F700E94280E6C2F62956F706061E0
:101C8000C801CF911F910F910C94280EFC01278160
:101C9000269526952695621738F465832385620F6D
:101CA0006770606B0C94280E08951F93CF93DF9399
:101CB000EC01142F8E81681718F4CE010E94300EAB
:101CC000612FCE01DF91CF911F910C94460ECF92E0
:101CD000DF92EF92FF920F931F93CF93DF93EC016C
:101CE000F62EC42ED22E1D868F81869586958695DA
:101CF000081710F00FEF080F1D2D011780F0412F6E
:101D00006F2DCE010E94550EEF2CCE1430F0688955
:101D1000CE010E940B0EE394F8CF1F5FEECF4D2D46
:101D20006F2DCE01DF91CF911F910F91FF90EF901A
:101D3000DF90CF900C94550E0F93CF93DF93CAEFA3
:101D4000D4E01B861A8660E4CE010E94280E0F8123
:101D500006950695069501504E81415020E060E0C1
:101D6000CE010E94670EDF91CF910F9108952F92BF
:101D70003F924F925F926F927F928F929F92AF921B
:101D8000BF92CF92DF92EF92FF920F931F93CF9368
:101D9000DF9300D000D000D01F92CDB7DEB79F8375
:101DA0008E83DC011E968D919C91009709F47EC173
:101DB000FC013296549031962491E22EF12CB7E03A
:101DC000EB0EF11C43E0F594E7944A95E1F7E982C4
:101DD00031963491319644916D3031F5EE81FF8129
:101DE000868181111BC081E090E027960FB6F894A0
:101DF000DEBF0FBECDBFDF91CF911F910F91FF903E
:101E0000EF90DF90CF90BF90AF909F908F907F909A
:101E10006F905F904F903F902F90089560E08E817B
:101E20009F810E94300EDFCF6A3009F067C0AE811B
:101E3000BF8116968C911697882321F060E0CD0122
:101E40000E94300EEE81FF8101890E9DE02C11244D
:101E500065816E0D8485882349F027812695269516
:101E600026958E2D821B860F18162CF08E819F8151
:101E70000E94460EB8CFAE81BF811B969C911B97E6
:101E8000890F87701B968C931B972E1915962C9390
:101E900015971E96ED91FC91309771F13396E49170
:101EA000F0E0379633E0F595E7953A95E1F70E9F28
:101EB000002D1124EFEFE20F0E0FEE81FF8146811E
:101EC00041506481CF010E94670EAE81BF811C9694
:101ED0008C911C97813009F086CF1B966C911B97D3
:101EE000660F660F660F6F731A966C931A9760648D
:101EF000CD010E94280E77CF00E0DCCF631760F1A0
:101F0000A32FA40FBB27BB1F6A171B062CF5631B4F
:101F1000212C8C010A5F1F4FEE81FF815185318991
:101F2000539F302D11243D83211014C0FC013491A6
:101F30000196FC018491932F0297A0F45E9C90017E
:101F40005F9C300D1124629FC001639F900D11248E
:101F5000080F191F612C28C0603209F0A7C0222485
:101F60002394D7CF277088E0682E621A211101C010
:101F7000612CF80120E090E080E0621731F03491AC
:101F8000830F911D2F5F3196F8CFF801E60FF11DF9
:101F90005490E89EF001E99EF00DF89EF00D11249A
:101FA000E40FF11D0E0F1F1FAE81BF811496BC916F
:101FB000BA83EE81FF81F581FB83AE81BF811D96DF
:101FC000BC91BC83852C912CAA24A394B12C312CD8
:101FD000E9813E1608F068C0412CAE81BF81519660
:101FE0008C915197481608F058C0EC811D96EC93DF
:101FF000311002C0442051F0AE81BF8115964C9142
:1020000015974F5F6A81CD010E94550ED12CC12CCE
:10201000C514B0F5712C211004C0F801EC0DFD1DA4
:102020007490662061F0EA14FB0449F4E72DF0E0B7
:10203000062C02C0F595E7950A94E2F77E2EEE8114
:10204000FF818189823079F44420B1F072948FE06D
:102050007822E72DF0E0E351FF4F7490672D8E81D9
:102060009F810E940B0E672D8E819F810E940B0E17
:102070003FEFC31AD30ACCCFF72DFF707F2EE9CFE5
:10208000D12C8D81D81639F060E08E819F810E941D
:102090000B0ED394F6CF4394A0CF3394AFEFAA1A8C
:1020A000BA0A080D191D94CF6B81E0CE90E080E054
:1020B0009CCE20911F03260F3327331F2132310579
:1020C000ECF42091D103FC0190E080E0243069F031
:1020D00082E00895A0911F032191AC0141505D4F12
:1020E000A40FB52FB11D2C930196861798F38091FC
:1020F0001F03680F60931F0380E0089581E0089537
:102100001092D10381E08093D0031092AB0361E081
:1021100082E10E94180B61E083E10E94180BE9EB59
:10212000F0E080818E7F808380818D7F808388E452
:102130008093B80085E48093BC000895CF93DF932B
:1021400091E09093FE028823B9F0C091B800D0913D
:10215000BA008091BC008A7B8093BC0060E082E181
:102160000E94180B60E083E10E94180B0E9480100F
:10217000D093BA00C093B800DF91CF910895CF9269
:10218000DF92EF92FF920F931F93CF93DF93D09143
:10219000FA0381E0D13208F09CC0C091F9030E949B
:1021A000820B6B017C018091D10381116CC082E0B4
:1021B0008093D10381E08093D0038FEF8093CF038E
:1021C0001092CE03D093CD03A9EDB3E0EDEAF3E096
:1021D00080E0D8138DC01092AC038091AC03CC0F7B
:1021E000C82BC093AC038091AB03813009F084C04D
:1021F0001092AB030E94820B6B017C018091AC03B7
:102200008093BB008091D3039091D403A091D50318
:10221000B091D603892B8A2B8B2BA1F00E94820BC5
:102220000091D3031091D4032091D5033091D603AC
:102230006C197D098E099F090617170728073907AA
:1022400008F442C08091BC0083FDD8CF85EC809318
:10225000BC000E94820B6B017C018091D103823013
:1022600009F44CC08091CF038F3F09F469C080917D
:10227000CF03803209F466C08091CF03803309F424
:1022800063C084E026C08091D3039091D403A091D1
:10229000D503B091D603892B8A2B8B2B09F483CFDE
:1022A0000E94820B0091D3031091D4032091D50397
:1022B0003091D6036C197D098E099F0906171707FF
:1022C0002807390708F06FCF8091D2030E949E1033
:1022D00085E01092D8031092FA031092D703DF9191
:1022E000CF911F910F91FF90EF90DF90CF900895C5
:1022F0009D9191938F5F6DCF85EEA9CF8091D30390
:102300009091D403A091D503B091D603892B8A2B49
:102310008B2B09F4A2CF0E94820B0091D303109162
:10232000D4032091D5033091D6036C197D098E0911
:102330009F09061717072807390708F08ECFC4CF63
:1023400080E0C7CF82E0C5CF83E0C3CFE0918903AF
:1023500080918803E81730F4F0E0E252FD4F80816D
:1023600090E008958FEF9FEF0895909189038091F9
:1023700088032FEF3FEF981748F4E92FF0E0E2527F
:10238000FD4F208130E09F5F90938903C90108953C
:102390008091880390918903891B990B0895CF92AE
:1023A000DF92EF92FF920F931F93CF93DF937C0105
:1023B000CB018A012091D703222389F0EB016B0125
:1023C000C40ED51ECC15DD0569F06991D701ED91DC
:1023D000FC910190F081E02DC7010995F3CF642FA6
:1023E0000E945910C801DF91CF911F910F91FF906A
:1023F000EF90DF90CF900895CF93DF931F92CDB7EA
:10240000DEB769832091D7032223F9F02091FA03E4
:10241000203258F021E030E0FC013383228390E049
:1024200080E00F90DF91CF9108958091D803E82F3D
:10243000F0E0E752FC4F998190838F5F8093D8033F
:102440008093FA0381E090E0ECCF61E0CE01019649
:102450000E945910F7CFCF93DF93EC0188819981C7
:10246000DC01ED91FC910190F081E02D09952A812C
:102470003B81820F931F9B838A83DF91CF910895C5
:10248000982F80336CF08A3324F08F3524F08B370B
:1024900024F481E0089581341CF081E09B350CF038
:1024A00080E00895CF93DF93EC0188819981DC016E
:1024B000ED91FC910280F381E02D09952A813B8109
:1024C000820F931F9B838A83DF91CF9108958F9210
:1024D0009F92AF92BF92CF92DF92EF92FF920F93B3
:1024E0001F93CF93DF93CDB7DEB766970FB6F894FF
:1024F000DEBF0FBECDBF6C018E01095E1F4F78019C
:102500008AE0882E912CA12CB12CCB01BA01A50117
:1025100094010E94B531942F852F605DF80162937C
:102520008F01A901692F782F4115510561057105AA
:1025300061F7A7014E1B5F0BBF01C6010E9452123B
:1025400066960FB6F894DEBF0FBECDBFDF91CF9178
:102550001F910F91FF90EF90DF90CF90BF90AF90C1
:102560009F908F9008952F923F924F925F926F921B
:102570007F928F929F92AF92BF92CF92DF92EF9213
:10258000FF920F931F93CF93DF9300D000D000D022
:10259000CDB7DEB71C014A015B0186E0D1011A9676
:1025A0008C9320E836E948E15BE4CB01B4010E945A
:1025B000793287FD84C004E110E060E2462E512CA0
:1025C0001E821D82F801EB52FF4F259135914591F6
:1025D0005491C501B4010E94793287FD13C0F801FE
:1025E000E354FF4F2591359145915491C501B401B4
:1025F0000E947C304B015C01ED81FE81E40DF51DF4
:10260000FE83ED8355944794045011090C3FFFEF6E
:102610001F07C1F677247A9420E030E0A901C501B4
:10262000B4010E94793218160CF051C02CEA35EC36
:1026300047E257E3C501B4010E94163018160CF4A6
:1026400046C0272D34E0230280011124F12CE12C17
:10265000C80183549F4F6C010B521F4F9FEF791697
:1026600009F435C0F601EE0DFF1D65917591859158
:10267000949120E030E040E251E40E947C30A501DA
:1026800094010E94793218169CF4F801EE0DFF1D9A
:102690002591359145915491C501B4010E947C303A
:1026A0004B015C01AD81BE81A419B509BE83AD8328
:1026B000559447947A94B4E0EB1AF108CFCF30E206
:1026C000432E512C45E0742E1E821D82A5CF2D81F4
:1026D0003E81F10131872087C501B4010E944A3251
:1026E00069837A838B839C83D1016D937D938D93D2
:1026F0009C9313972B013C0190E4C92E92E4D92EB0
:102700009FE0E92EF12CBAE04B16510461047104EC
:10271000C8F0C701B6012AE030E040E050E00E9476
:10272000B53169017A01F101828581508287C30147
:10273000B2012AE030E040E050E00E94B5312901CA
:102740003A01E1CF69817A818B819C810E941B30A3
:102750009B01AC01C501B4010E94DD314B015C015C
:10276000C701B6010E941B309B01AC01C501B40139
:102770000E947C302B013C010E944A324B015C01DB
:102780000E941B309B01AC01C301B2010E94DD31EC
:102790009B01AC010E94DE310E944A32860E971ED8
:1027A000A81EB91E8C149D04AE04BF0430F5D101DF
:1027B00014968D929D92AD92BC9217978AE0C82E86
:1027C000D12CE12CF12CD10114966D917D918D913C
:1027D0009C911797A70196010E94B531672B682B32
:1027E000692B89F5F101828518166CF524833583F0
:1027F0004683578381508287E6CFF1011482158288
:102800001682178289819A81AB81BC810196A11DB4
:10281000B11D80839183A283B3832D813E812115D5
:10282000310561F20A97A105B10540F2C90101968F
:102830009187808781E090E0A0E0B0E08083918381
:10284000A283B383BBCF26960FB6F894DEBF0FBE2C
:10285000CDBFDF91CF911F910F91FF90EF90DF904F
:10286000CF90BF90AF909F908F907F906F905F9030
:102870004F903F902F900895CF92DF92EF92FF926A
:102880000F931F93CF93DF93EC018C85811130C0A0
:1028900009851A850E94D90BD80118966D937D93EE
:1028A0008D939C931B97D801ED91FC910284F38545
:1028B000E02DC801099597FF25C00E94D90BF801AA
:1028C000C084D184E284F3846C197D098E099F0948
:1028D000C480D580E680F7806C157D058E059F0548
:1028E00010F38FEF9FEF97FD80E08B8781E08C875F
:1028F0008B85DF91CF911F910F91FF90EF90DF902B
:10290000CF9008959927EFCF1F93CF93DF93EC01DA
:10291000162F0E943C14811306C01C8681E0DF91B3
:10292000CF911F91089580E0FACF0F931F93CF931B
:10293000DF938C01EB018991882369F0C8010E9423
:102940003C14882379F0FE013197908198130DC0D3
:10295000F8011486F0CF90E080E0DF91CF911F91D5
:102960000F91089582E090E0F8CF83E090E0F5CFFA
:10297000CF93DF93EC01CE010E943C148B304CF4DA
:1029800089305CF4882359F081E0888790E080E00A
:102990000BC08D3011F08032B9F71C86ECCF8885E2
:1029A000811105C081E090E0DF91CF91089582E030
:1029B00090E0FACFFC0124813581A9014F5F5F4F80
:1029C000868197814817590748F4828193815583FE
:1029D0004483FC01E20FF31F608308950190F081AE
:1029E000E02D81E0808708959F92AF92BF92CF92B1
:1029F000DF92EF92FF920F931F93CF93DF9300D05C
:102A000000D01F92CDB7DEB78C010E943C14D82EA7
:102A1000D8011C961C92F12CE12C60EFC62EC80147
:102A20000E943C14F8011486D81609F4B4C0811130
:102A300013C082E090E00F900F900F900F900F90D6
:102A4000DF91CF911F910F91FF90EF90DF90CF908A
:102A5000BF90AF909F9008958C3509F09AC0C8013F
:102A60000E943C14882329F3E4EAF1E0853709F059
:102A700084C0D8011C961C9254E0952EB12CA12C38
:102A8000C8010E943C148823A1F2813434F480539D
:102A9000803130F083E090E0CECF8F7D8753F8CF48
:102AA00044E0AA0CBB1C4A95E1F7A82AF801148659
:102AB0009A949110E5CFC501985D8115944020F45A
:102AC0007501F3E0FF22ABCFC5019C5D81159440F9
:102AD000A8F483E0B822B701762F6627770F770F27
:102AE0006A297B2990E080E00196603871058105B4
:102AF000910540F4C8010E94DA1491CFB50190E02D
:102B000080E0F3CF1982262F2F7320682A8326E0D6
:102B100096958795779567952A95D1F760327105D7
:102B200080F4606C6B835E01A4E0AA0EB11CD50139
:102B30006E915D01662309F472CFC8010E94DA1418
:102B4000F6CF262F2F7320682B8386E07695679526
:102B50008A95E1F76031710538F4606E6C835E012F
:102B6000B5E0AB0EB11CE3CF60686C83CD825E0133
:102B7000E6E0AE0EB11CDBCF32969081992309F4CA
:102B800089CF8913F9CF8181882309F483CFF80194
:102B90001486682FAFCF0190F081E02D80858823C7
:102BA00019F084E090E047CF90E080E044CF4F926E
:102BB0005F926F927F928F929F92AF92BF92CF92CD
:102BC000DF92EF92FF920F931F93CF93DF93EB016E
:102BD000DC012C912B32D9F12D32D1F50196FF2455
:102BE000F394FC01208130ED320F3A3018F02E3290
:102BF00009F042C18C0160E070E0CB01F801219145
:102C000030ED832E820E39E0381520F16A3949E91A
:102C10007407840749E1940738F5AAE0B0E09B0106
:102C2000AC010E945031912CB12CA12C2401350112
:102C3000409450946094709446165706680679063E
:102C400098F0680D791D8A1D9B1D8F01D7CF0196C5
:102C5000F12CC7CF211108C0FF20E9F161307105C7
:102C6000810550E89507A0F0E12CBAE08B2E912C5D
:102C7000A12CB12C6115710530E883079105B0F1E5
:102C8000A50194010E94B531CA01B901E394F2CFC4
:102C90002C8120782A602C839B01AC0188279927FE
:102CA000DC01821B930BA40BB50B88839983AA8349
:102CB000BB838F2DDF91CF911F910F91FF90EF90EC
:102CC000DF90CF90BF90AF909F908F907F906F904C
:102CD0005F904F9008952C81207828602C83688322
:102CE00079838A839B83FF24F394E3CFF801D8018F
:102CF0002D918D0130ED320F3A3010F4E394F6CF80
:102D00002E3201F58F010F5F1F4FF8010F5F1F4F2C
:102D10002081A0EDDA2ED20EB9E0BD1598F06C3C02
:102D2000ECEC7E07ECE08E07910578F7AAE0B0E0C6
:102D30009B01AC010E9450316D0D711D811D911DD3
:102D4000EA94E3CF20812F7D10E000E0253409F0E4
:102D50005BC021812D32D1F53296CC24C394DF01A2
:102D600010E000E02E2D0E2C000C330B5AE0B52E97
:102D7000FD01DD9040ED4D0D4A3008F040C0B09EA1
:102D8000A001B19E500D11240D2DDD0C110B00532F
:102D90001109040F151FA801420F531F4732510597
:102DA0003CF38C81CC20C9F040E050E060E070E85A
:102DB000F11003C040E050E0BA0180788C608C8351
:102DC000488359836A837B83FC2C73CF2B3219F0A1
:102DD0003196C12CC4CF3296FCCF40E050E060E881
:102DE0007FEFF11004C040E050E060E87FE78078BA
:102DF0008C608C83488359836A837B8374CFCC2017
:102E000019F01195019511092081211135C00E0D80
:102E1000111DE7FC1A950E941B3035EDC32E30E0E2
:102E2000D32E101611063CF01195019511094DEBAA
:102E3000C42E40E0D42EE12C0115110591F000FFC5
:102E40000CC024E0E29EF0011124EC0DFD1D259143
:102E50003591459154910E947C3015950795E394E6
:102E6000EBCFF11090582C8120782C602C83688354
:102E700079838A839B8337CFF12C1BCFCF92DF924C
:102E8000EF92FF92CF93DF9300D000D01F92CDB787
:102E9000DEB7FC01892B39F084818F778630B1F061
:102EA00020F4843000F580E012C08A3021F08C30AC
:102EB00039F18830C1F780819181A281B3818F3F40
:102EC0009105A105B10519F010F0EDCF80810F90AB
:102ED0000F900F900F900F90DF91CF91FF90EF9098
:102EE000DF90CF900895808191811D82BE016F5F38
:102EF0007F4F0E94D715CE0101960E943E17E7CF63
:102F0000C080D180E280F38020E030E0A901C701D9
:102F1000B6010E94793287FDC6CF20E030E04FE74E
:102F200053E4C701B6010E94163018160CF4BBCF4B
:102F3000C701B6010E944A32862FC9CFCF93DF93D3
:102F4000DC01EB01EC81FD818A819B810896E81709
:102F5000F90740F481E08887F0E0E0E0CF01DF91FD
:102F6000CF9108953897FD83EC833097B9F312968B
:102F7000CD91DC911397209791F0CF018C1B9D0B85
:102F800023E0959587952A95E1F78D831396FC9319
:102F9000EE9312971582148217821682DFCF119654
:102FA000FC93EE93F3CFEF92FF920F931F93CF9387
:102FB000DF937C01DC0112962D913C911397ED91EA
:102FC000FC91AB01420F531FEF01C60FD71FC21771
:102FD000D307A0F4888181110BC0E901CF014C1700
:102FE0005D0751F00991DC011D91CD010117B9F385
:102FF00081918111FDCFE8CF309751F4620F731F9B
:10300000CB010196F70193838283DB011C92F901C6
:10301000CF01DF91CF911F910F91FF90EF90089515
:10302000FC012581222339F0F8E02F0290011124C0
:10303000820F931F089590E080E008950F931F93EF
:10304000CF93DF93EC01062F142F8B89813120F46D
:10305000882329F0411103C00E94BF101B8A8B896D
:10306000811112C08A8991E09093D7038093F9036C
:103070001092D8031092FA0360E4111101C060E0CD
:1030800088E994E00E94FC11602F88E994E00E9496
:10309000FC11123041F48B898F5F8B8BDF91CF91C4
:1030A0001F910F9108950E94BF101B8AF7CF0895BA
:1030B00090E080E00895CF93DF93EC0184EF91E0FE
:1030C0000E9483329C012C503E4F009711F430E057
:1030D00020E09A8389839C838B833E832D8338876A
:1030E0002F8319861E86DF91CF9108950E94653443
:1030F0000F931F93CF93DF93EC0188819981009701
:1031000059F02A813B812617370730F081E0DF91A3
:10311000CF911F910F9108958B016F5F7F4F0E9498
:10312000A833009759F0998388831B830A832C81E5
:103130003D81232B59F7FC011082E8CF80E0E7CFD7
:10314000CF93DF93EC0188819981009711F00E9461
:103150001F33198218821D821C821B821A82DF9102
:10316000CF910895EF92FF920F931F93CF93DF9328
:10317000EC017B018A01BA010E94781881110BC011
:10318000CE010E94A018CE01DF91CF911F910F9127
:10319000FF90EF9008951D830C83B701888199817A
:1031A0000E947334F0CFCF93DF93EC01FB018617BD
:1031B000970749F0608171816115710541F0448183
:1031C00055810E94B218CE01DF91CF9108950E94DF
:1031D000A018F9CFFC0180819181009711F00C9427
:1031E0001F330895FC0181819281009711F00C94A6
:1031F0001F330895FC0111821082138212821582FE
:1032000014826115710551F0FB0101900020E9F76E
:103210003197AF01461B570B0C94B2180895FB0170
:1032200001900020E9F73197AF01461B570BDC01F5
:10323000ED91FC910280F381E02D09948F929F9291
:10324000AF92BF920F931F93CF93DF93CDB7DEB7AB
:10325000A1970FB6F894DEBF0FBECDBF19A24230C2
:1032600008F44AE08E010F5D1F4F842E912CB12C83
:10327000A12CA50194010E94B531E62FB901CA0124
:10328000EA3004F5E05DD801EE938D01232B242B69
:10329000252B79F790E080E0109729F0BD018AEFA7
:1032A00094E00E940F19A1960FB6F894DEBF0FBEEE
:1032B000CDBFDF91CF911F910F91BF90AF909F90A5
:1032C0008F900895E95CDFCF65EB71E00C940F19E6
:1032D000FC0144815581608171818AEF94E00E94F4
:1032E0002E0C8AEF94E00C946419CF93DF930E9424
:1032F000240DEC018BEF93E00E9464198C0F9D1F4D
:10330000DF91CF910895CF93DF936115710579F126
:10331000EB01DC018D919C91009759F1DC0116962F
:10332000ED91FC91DE010D900020E9F71197AD01C0
:103330004C1B5D0B30E020E0309749F0DF010D9031
:103340000020E9F79D01215031092E1B3F0B241766
:10335000350751F4DE012C0F3D1F2A173B0749F0BA
:103360005D9141915417C9F30E941018D5CF90E098
:1033700080E0DF91CF9108959F92AF92BF92CF925C
:10338000DF92EF92FF920F931F93CF93DF93EC01A5
:103390007B01D42E0E94B8148C01892B09F052C0F5
:1033A000CE010E943C14863609F455C194F587324B
:1033B00029F08B35D1F1823209F056C1E881F981CB
:1033C000828193819B838A83848195812281338149
:1033D000821B930B9F838E831D821C82892B11F489
:1033E00081E08087CE010E94F4148C01892B51F575
:1033F000AC80BD80B501888199810E94D317F70107
:10340000248120782560248391838083B382A282E3
:1034100019C0843709F408C18B3709F453C08E36BC
:1034200009F022C163EC71E008C1F7018481807862
:10343000806484831182108213821282D1100FC0A3
:1034400005E010E0C801DF91CF911F910F91FF902F
:10345000EF90DF90CF90BF90AF909F9008951C8623
:10346000CE010E94B814009709F02DC16DE5CE0180
:103470000E9484148111E6CFDA946D857E85C701A0
:103480000E949E17009709F46EC04D2DBC01CE011D
:103490000E94BC19009709F016C1CE010E94B81411
:1034A000009709F010C16DE5CE010E9484148111CE
:1034B000C9CF6CE2CE010E9484148111DECF03E0FB
:1034C00010E0C0CFF701848180788062848311820C
:1034D000108213821282DD2009F4B2CF1C86CE0145
:1034E0000E94B814009709F0EEC06DE7CE010E946B
:1034F00084148111A7CFBB24B394DA94E881F981B5
:10350000828193819B838A83848195812281338107
:10351000821B930B9F838E831D821C82892B09F44F
:10352000B086CE010E943C14873201F18232F1F064
:10353000CE010E943C14182F0E944012882309F4E7
:10354000BECF1C86612FCE010E94DA14CE010E94EC
:103550003C14182F0E9440128111F3CFE881F981A9
:103560008085882351F004E010E06CCFCE010E94EA
:10357000F4148C01892B09F065CFCE010E94B81498
:103580008C01892B09F05ECF6AE3CE010E9484147E
:10359000882309F494CFEA81FB818C819D81E80F17
:1035A000F91F10820C811D816A817B81C7010E94F5
:1035B0008319BC01892BA1F4B801888199810E94EB
:1035C000D3178C016D857E85C7010E949E17FC0173
:1035D000892B49F284818068848317830683BF0125
:1035E0004D2DCE010E94BC198C01892B09F02ACFE8
:1035F000CE010E94B8148C01892B09F023CF6DE70E
:10360000CE010E94841481111DCF6CE2CE010E9474
:103610008414882309F453CFCE010E94B8148C017E
:10362000892B09F46BCF0ECFF701848180788660F7
:10363000848381E0808368EB71E0CE01DF91CF91DC
:103640001F910F91FF90EF90DF90CF90BF90AF90C0
:103650009F900C949514F701848180788660848310
:1036600010826DEB71E0E9CFCE010E943C145E0147
:10367000FFE0AF0EB11CD12C9A2CCB2C803374F010
:103680008A3374F49FE3D91699F01C86D394F5011C
:1036900081935F01CE010E943C14F0CF8B3291F3F5
:1036A00093ED980F923070F3982F9F7D953451F3DE
:1036B000CD0DD11D1F86B701892D9C2D0E94D715D8
:1036C0008111C0CEFCCE8C01BDCE0F931F93CF9342
:1036D000DF93CDB7DEB7CF55D1090FB6F894DEBF73
:1036E0000FBECDBF8C01FC018081918193838283C9
:1036F00086819781958384831086858580788587E8
:103700006A961FAF0EAF6A9788E0FE01E85AFF4F36
:10371000DE01A05BBF4F01900D928A95E1F788E032
:10372000FE01E05BFF4FDE01119601900D928A953C
:10373000E1F719868AE295E09B878A871D861F87B5
:103740000E87B801675F7F4F4AE0CE0101960E9465
:10375000BC19009749F42C85222331F0F801258506
:1037600023FF02C083E090E0C15ADF4F0FB6F89408
:10377000DEBF0FBECDBFDF91CF911F910F91089596
:10378000EF92FF920F931F93CF93DF93EC018C8105
:10379000982F9F7739F4807880628C831982188201
:1037A0001B821A828C8185FF1DC061157105D1F0C5
:1037B0007A018B01CE010E948319009761F4B70151
:1037C000CE010E949E17009731F0FC0124812F77D3
:1037D000248317830683DF91CF911F910F91FF9070
:1037E000EF90089590E080E0F6CFFC01248125FD64
:1037F0000C94831990E080E00895FB010190002073
:10380000E9F73197AF01461B570B0C9452121F93E7
:10381000CF93DF93E4EAF1E01281112379F032963D
:1038200021816213F9CFEC016CE50E942B12612F0C
:10383000CE01DF91CF911F910C942B126111F9CF22
:1038400068EC71E0DF91CF911F910C94FD1B4F92BA
:103850005F926F927F928F929F92AF92BF92CF9220
:10386000DF92EF92FF920F931F93CF93DF93CDB729
:10387000DEB7A1970FB6F894DEBF0FBECDBF7C01B7
:103880008B01FC0184818F77863009F45CC160F480
:10389000823098F0C280D380A080B180843008F05C
:1038A00023C1A601B501CAC08C3051F148F488305B
:1038B00009F444C18A3009F42AC163EC71E04AC1B9
:1038C000803209F4DDC08034C1F76BE5C8010E9485
:1038D0002B12F701E080F180E114F10409F4B2C089
:1038E000B801C7010E94271CC7010E9410187C0163
:1038F000892B09F4A7C06CE2C8010E942B12ECCFFF
:1039000080809180A280B380A5019401C501B4019B
:103910000E9416308111D1CF20E030E0A901C5010D
:10392000B4010E941630882379F0A5019401C501E5
:10393000B4010E94DE319B01AC01C501B4010E94BB
:103940001630882309F4B9CF20E030E0A901C50181
:10395000B4010E94163087FF08C06DE2C8010E94C2
:103960002B12B7FAB094B7F8B0946E01F7E1CF0E0E
:10397000D11CB501A401C6010E94B3124F89588D14
:10398000698D7A8DC8010E946712F9A0FF2091F11C
:103990006B8D7C8D8D8D9E8D4E0121E1820E911C53
:1039A000EF2C54012AE0422E512C612C712CEA9408
:1039B000EFEFEE1659F0A30192010E94B531605D60
:1039C000F40162934F01B901CA01F1CF8F2D90E04C
:1039D000BC0160957095F501E81BF90B31978EE2FB
:1039E000808344275527461B570B6A0D7B1DC80152
:1039F0000E9452128F8D98A1892B41F165E6C80172
:103A00000E942B12EF8CF8A0C701F7FE08C06DE2F0
:103A1000C8010E942B12882799278E199F09F60149
:103A20002AE030E0B9010E94A131805D8293CB0190
:103A30000097C1F7A6014E1B5F0BBF01C8010E9492
:103A4000521204C06DE5C8010E942B12F801828158
:103A50009381A1960FB6F894DEBF0FBECDBFDF9164
:103A6000CF911F910F91FF90EF90DF90CF90BF907B
:103A7000AF909F908F907F906F905F904F90089540
:103A80006BE7C8010E942B12F701E080F180E1147E
:103A9000F10441F1F701A680B78062E2C8010E94FB
:103AA0002B126501F60161916F01662321F0C801B7
:103AB0000E94071CF7CF62E2C8010E942B126AE342
:103AC000C8010E942B12B801C7010E94271CC70120
:103AD0000E9410187C01892B29F06CE2C8010E9419
:103AE0002B12D5CF6DE7AFCF62E2C8010E942B1237
:103AF0007501CE0CDF1CCE14DF0439F0F7016191A3
:103B00007F01C8010E94071CF6CF62E29CCFC080F3
:103B1000D180E280F380B701A601F7FE0BC06DE211
:103B2000C8010E942B1244275527BA014C195D0980
:103B30006E097F09C8010E94671288CF40815181B8
:103B400062817381F7CF808168EB71E0811102C0DF
:103B50006DEB71E0C8010E94FD1B78CFCF93DF931E
:103B600000D000D0CDB7DEB72AE235E03A83298312
:103B70001C821B82009761F0BE016F5F7F4F0E9425
:103B8000271C0F900F900F900F90DF91CF91089509
:103B900063EC71E0CE0101960E94FD1B8B819C813C
:103BA000F0CFCF92DF92EF92FF920F931F93CF93BC
:103BB000DF938C01DC019296ED91FC91E80FF91FE7
:103BC00012826C01B2E0CB0ED11CC114D10449F1B8
:103BD000F60101900020E9F73197EC19FD09F1F0A9
:103BE000DC01ED90FC90D7011496CD91DC91CE0FC5
:103BF000DF1FBE01C7010E947818882391F0F701EA
:103C00002081318184819581B601820F931F0E94AA
:103C10007334D7011596DC93CE931497F80113A251
:103C200012A2D80192968D919C91DF91CF911F9114
:103C30000F91FF90EF90DF90CF9008951F93CF9357
:103C4000DF93EC01162F8AA19BA101968097B8F40F
:103C50008AA19BA19C012F5F3F4F3BA32AA38C0FFE
:103C60009D1FFC01128321E030E08CA19DA1820FF9
:103C7000931F9DA38CA3DF91CF911F910895CE0137
:103C80000E94D11D892B21F330E020E0EECFBF92BE
:103C9000CF92DF92EF92FF920F931F93CF93DF9318
:103CA000EC016A018B017B01E40EF51EE016F106C2
:103CB000D1F0F801B1908F018AA19BA10196809764
:103CC00060F48AA19BA19C012F5F3F4F3BA32AA3D5
:103CD0008C0F9D1FFC01B282E9CFCE010E94D11D45
:103CE000892B79F3E3CF4CA15DA14C0D5D1D5DA344
:103CF0004CA3DF91CF911F910F91FF90EF90DF9038
:103D0000CF90BF9008958F929F92AF92BF92CF9223
:103D1000DF92EF92FF920F931F93CF93DF93CDB774
:103D2000DEB766970FB6F894DEBF0FBECDBF6C014D
:103D30008E01095E1F4F78018AE0882E912CA12CFC
:103D4000B12CCB01BA01A50194010E94B531942F89
:103D5000852F605DF80162938F01A901692F782F8B
:103D6000411551056105710561F7A7014E1B5F0BF8
:103D7000BF01C6010E94471E66960FB6F894DEBFCB
:103D80000FBECDBFDF91CF911F910F91FF90EF90AC
:103D9000DF90CF90BF90AF909F908F900895FB01E0
:103DA00001900020E9F73197AF01461B570B0C94A7
:103DB000471E1F93CF93DF93E4EAF1E012811123B2
:103DC00079F0329621816213F9CFEC016CE50E9403
:103DD0001E1E612FCE01DF91CF911F910C941E1EEC
:103DE0006111F9CF68EC71E0DF91CF911F910C94D4
:103DF000CF1E4F925F926F927F928F929F92AF925F
:103E0000BF92CF92DF92EF92FF920F931F93CF93C7
:103E1000DF93CDB7DEB7A1970FB6F894DEBF0FBE24
:103E2000CDBF7C018B01FC0184818F77863009F442
:103E30005CC160F4823098F0C280D380A080B180F1
:103E4000843008F023C1A601B501CAC08C3051F1FD
:103E500048F4883009F444C18A3009F42AC163EC7B
:103E600071E04AC1803209F4DDC08034C1F76BE5EE
:103E7000C8010E941E1EF701E080F180E114F104E8
:103E800009F4B2C0B801C7010E94F91EC7010E941F
:103E900010187C01892B09F4A7C06CE2C8010E94AC
:103EA0001E1EECCF80809180A280B380A50194017A
:103EB000C501B4010E9416308111D1CF20E030E05D
:103EC000A901C501B4010E941630882379F0A5012B
:103ED0009401C501B4010E94DE319B01AC01C50112
:103EE000B4010E941630882309F4B9CF20E030E0F5
:103EF000A901C501B4010E94163087FF08C06DE218
:103F0000C8010E941E1EB7FAB094B7F8B0946E01B3
:103F1000F7E1CF0ED11CB501A401C6010E94B31276
:103F20004F89588D698D7A8DC8010E94831EF9A032
:103F3000FF2091F16B8D7C8D8D8D9E8D4E0121E149
:103F4000820E911CEF2C54012AE0422E512C612C40
:103F5000712CEA94EFEFEE1659F0A30192010E9442
:103F6000B531605DF40162934F01B901CA01F1CF2F
:103F70008F2D90E0BC0160957095F501E81BF90B61
:103F800031978EE2808344275527461B570B6A0DD5
:103F90007B1DC8010E94471E8F8D98A1892B41F17E
:103FA00065E6C8010E941E1EEF8CF8A0C701F7FE4F
:103FB00008C06DE2C8010E941E1E882799278E192D
:103FC0009F09F6012AE030E0B9010E94A131805D2D
:103FD0008293CB010097C1F7A6014E1B5F0BBF0177
:103FE000C8010E94471E04C06DE5C8010E941E1E44
:103FF000F80184A195A1A1960FB6F894DEBF0FBE7B
:10400000CDBFDF91CF911F910F91FF90EF90DF9087
:10401000CF90BF90AF909F908F907F906F905F9068
:104020004F9008956BE7C8010E941E1EF701E080C3
:10403000F180E114F10441F1F701A680B78062E25A
:10404000C8010E941E1E6501F60161916F01662381
:1040500021F0C8010E94D91EF7CF62E2C8010E9478
:104060001E1E6AE3C8010E941E1EB801C7010E94FD
:10407000F91EC7010E9410187C01892B29F06CE2FF
:10408000C8010E941E1ED5CF6DE7AFCF62E2C80106
:104090000E941E1E7501CE0CDF1CCE14DF0439F009
:1040A000F70161917F01C8010E94D91EF6CF62E23B
:1040B0009CCFC080D180E280F380B701A601F7FEDB
:1040C0000BC06DE2C8010E941E1E44275527BA018D
:1040D0004C195D096E097F09C8010E94831E88CFB3
:1040E0004081518162817381F7CF808168EB71E0FB
:1040F000811102C06DEB71E0C8010E94CF1E78CF24
:104100000F931F93CF93DF93CDB7DEB7C65BD10973
:104110000FB6F894DEBF0FBECDBF8C019B01009798
:1041200049F0FC0194819F77943009F45BC095308D
:1041300009F458C0CD56DF4F39832883C359D04086
:10414000CB54DF4F19821882C55BD04084E2FE0158
:10415000ED56FF4FDE01A159BF4F01900D928A9598
:10416000E1F784E2FE01E159FF4FDE01A55BBF4F9D
:1041700001900D928A95E1F784E2FE01E55BFF4F25
:10418000DE01979601900D928A95E1F784E2FE0197
:10419000B796DE01119601900D928A95E1F71EA265
:1041A0001DA2CE0187960E94D11DCE01855B9F4F37
:1041B0000E94D11D0115110599F1BE016F5F7F4F5E
:1041C000C8010E94F91ECE0101960E94D11DCE01A8
:1041D00081599F4F0E94D11DCE018D569F4F0E9445
:1041E000D11D12C0F801608171816115710509F45A
:1041F000A1CFFB0101900020E9F73197AF01461BE9
:10420000570BC9010E94B218CA54DF4F0FB6F89479
:10421000DEBF0FBECDBFDF91CF911F910F910895EB
:1042200063EC71E0CE0101960E94CF1ECCCFEF92DD
:10423000FF920F931F93CF93DF93EC0119821882A3
:104240001B821A821D821C826115710509F18B0186
:10425000CB010E940D307C01BC01CE010E94781878
:10426000811109C0CE01DF91CF911F910F91FF9075
:10427000EF900C94A018FD82EC82B801888199819E
:10428000DF91CF911F910F91FF90EF900C9406302A
:10429000DF91CF911F910F91FF90EF9008957F9242
:1042A0008F929F92AF92BF92CF92DF92EF92FF9246
:1042B0000F931F93CF93DF93CDB7DEB72E970FB633
:1042C000F894DEBF0FBECDBF1092EA041092EC044A
:1042D0001092EB041092F7041092F9041092F80473
:1042E00088E0E2E5F1E0DE01119601900D928A95F9
:1042F000E1F777247A94CC24CA94DC2C80EE94E005
:104300000E94E50BE82E8DEE94E00E94E50BF82E5E
:104310000E94D90B0091A4041091A5042091A60439
:104320003091A704601B710B820B930B643F7140AB
:104330008105910518F30E94D90B6093A404709332
:10434000A5048093A6049093A7040E949C0E86E780
:1043500092E10E947B0A40E06EE18AEF94E00E94C5
:10436000550E6DE672E1CE0109960E941721CE012D
:1043700009960E945B0CCE0109960E94EA188AEF0A
:1043800094E00E946419CE0101964C0110E000E017
:10439000AE2CB12CF401619171914F01A016B106C0
:1043A000B1F570920A05CE0109960E94FA18CE0165
:1043B00009960E946819CE0109960E94EA18109287
:1043C0000A05B0924B01A0924A010F5F1F4F0430C3
:1043D000110501F7F3E0FE1538F521E02F1530F156
:1043E0001092F7041092F9041092F8041092EA0463
:1043F0001092EC041092EB04D0924B01C0924A014F
:1044000064E170E080E090E00E94A70B77CFCE01DE
:1044100009960E94FA18CE0109960E946819CE01E9
:1044200009960E94EA18CDCFFF2051F30E949C0EFE
:104430001092F7041092F9041092F8041092EA0412
:104440001092EC041092EB042E960FB6F894DEBF97
:104450000FBECDBFDF91CF911F910F91FF90EF90D5
:10446000DF90CF90BF90AF909F908F907F900895F6
:104470007F928F929F92AF92BF92CF92DF92EF92F4
:10448000FF920F931F93CF93DF93CDB7DEB72C9797
:104490000FB6F894DEBF0FBECDBF1092EA041092A3
:1044A000EC041092EB041092F7041092F9041092AD
:1044B000F80483E08093D80486E0EAE5F1E0DE01C9
:1044C000179601900D928A95E1F777247A94CC247F
:1044D000CA94DC2C80EE94E00E94E50BE82E8DEE71
:1044E00094E00E94E50BF82E0E94D90B0091C304C2
:1044F0001091C4042091C5043091C604601B710B57
:10450000820B930B643F71408105910518F30E9463
:10451000D90B6093C3047093C4048093C504909333
:10452000C6040E949C0E8BE99EE00E947B0A40E03C
:1045300068E28AEF94E00E94550E66E97EE0CE01C3
:1045400001960E941721CE0101960E945B0CCE01BC
:1045500001960E94EA188AEF94E00E9464194E01C5
:1045600087E0880E911C10E000E0AE2CB12CF40125
:10457000619171914F01A016B106B9F570920A05CB
:10458000CE0101960E94FA18CE0101960E94681988
:10459000CE0101960E94EA1810920A05B0924901D4
:1045A000A09248010F5F1F4F0330110501F7809162
:1045B000D804E81638F1F1E0FF1530F11092F70455
:1045C0001092F9041092F8041092EA041092EC048C
:1045D0001092EB04D0924901C092480164E170E06E
:1045E00080E090E00E94A70B75CFCE0101960E945B
:1045F000FA18CE0101960E946819CE0101960E9418
:10460000EA18CCCFFF2051F30E949C0E1092F704C1
:104610001092F9041092F8041092EA041092EC043B
:104620001092EB042C960FB6F894DEBF0FBECDBFF0
:10463000DF91CF911F910F91FF90EF90DF90CF907E
:10464000BF90AF909F908F907F90089585ED80935D
:10465000BC008091D3039091D403A091D503B09175
:10466000D6030796A11DB11D23E0B695A795979592
:1046700087952A95D1F72091BC0024FD03C01092A4
:10468000D10308954091D3035091D4036091D50391
:104690007091D603452B462B472B69F30097A10554
:1046A000B10541F02AE22A95F1F700C00197A1096E
:1046B000B109E1CF8091D2030C949E101F920F920A
:1046C0000FB60F9211242F933F938F939F93AF9325
:1046D000BF938091A3039091A403A091A503B091EF
:1046E000A6033091A20323E0230F2D3758F501963E
:1046F000A11DB11D2093A2038093A3039093A40353
:10470000A093A503B093A6038091A7039091A8035B
:10471000A091A903B091AA030196A11DB11D809398
:10472000A7039093A803A093A903B093AA03BF91F2
:10473000AF919F918F913F912F910F900FBE0F904E
:104740001F90189526E8230F0296A11DB11DD2CF08
:104750001F920F920FB60F9211242F933F934F93F6
:104760005F936F937F938F939F93AF93BF93EF93D9
:10477000FF938BEF93E00E94B50CFF91EF91BF91F7
:10478000AF919F918F917F916F915F914F913F91E9
:104790002F910F900FBE0F901F9018951F920F92A0
:1047A0000FB60F9211242F938F939F93EF93FF9344
:1047B000E0910B04F0910C048081E0911104F091E0
:1047C000120482FD1BC09081809114048F5F8F734F
:1047D00020911504821741F0E0911404F0E0E550B7
:1047E000FC4F958F80931404FF91EF919F918F91CF
:1047F0002F910F900FBE0F901F9018958081F4CFCE
:104800001F920F920FB60F9211242F933F934F9345
:104810005F936F937F938F939F93AF93BF93EF9328
:10482000FF93E0911405F0911505309749F0A685A6
:10483000B7858585968D91FF14C09C918923A1F43D
:10484000FF91EF91BF91AF919F918F917F916F9168
:104850005F914F913F912F910F900FBE0F901F903E
:1048600018959C91892361F7A389B4899C918589C6
:10487000809589238C93868997890197F1F7608DBC
:10488000718DA685B785558538E020E0CB0101976D
:10489000F1F7822F90E095958795282F4C9145232D
:1048A00009F02068315091F7868D81FD2095809127
:1048B000830390E001968F73992730918203381714
:1048C00099F0A0918303B0E0AE5BBC4F2C93809332
:1048D0008303828D938D0197F1F7A389B4898C911D
:1048E0009589892B8C93ACCF868D8160868FF1CF93
:1048F0001F920F920FB60F9211242F933F934F9355
:104900005F936F937F938F939F93AF93BF93EF9337
:10491000FF938091B900887F803609F44AC0F0F592
:10492000883209F4A7C018F5803109F49BC0B8F4A7
:10493000882309F4F9C0883009F494C0FF91EF91FD
:10494000BF91AF919F918F917F916F915F914F91A7
:104950003F912F910F900FBE0F901F9018958831A7
:1049600009F488C0803251F78093CF0314C080349B
:1049700009F49DC040F48033B9F38833F9F680938D
:10498000CF0385ECB0C0803509F485C0883509F4C3
:1049900096C0883499F60E942623D0CF883909F42E
:1049A0008CC038F5883729F050F4883611F08037FC
:1049B00029F683E08093D1031092410357C08838D1
:1049C00009F47BC0803919F0803809F0B7CF8091A5
:1049D0004103803208F071C0E091410381E08E0F05
:1049E000809341038091BB00F0E0EF5DFC4F80833A
:1049F0003DC0803B39F0E0F4803A09F479C0883A50
:104A000009F09CCF84E08093D10310922003109290
:104A10001F03E0918603F0918703099580911F039E
:104A200081110FC081E080931F031092FF0209C023
:104A3000803C09F4A6CF883C09F4A3CF883B09F059
:104A40007DCFE091200381E08E0F80932003F0E082
:104A5000E150FD4F80818093BB00909120038091B5
:104A60001F0329C08091AC038093BB0085EC809329
:104A7000BC0064CF9091CE038091CD03981758F578
:104A8000E091CE0381E08E0F8093CE03F0E0E355FA
:104A9000FC4F8081E9CFE091CE0381E08E0F8093BF
:104AA000CE038091BB00F0E0E355FC4F80839091F2
:104AB000CE038091CD039817C8F285E8D8CFE09156
:104AC000CE0381E08E0F8093CE038091BB00F0E097
:104AD000E355FC4F80838091D00381115CCF81E04E
:104AE0008093AB0384EA8093BC001092D10326CF5D
:104AF00085EC8093BC001092D103809141038032F9
:104B000030F4E0914103F0E0EF5DFC4F10826091E2
:104B1000410370E0E0918403F091850381E293E02A
:104B20000995109241030ACF1092CF0334CF8EE043
:104B300095E00E94EA188DE495E00E94EA1886E963
:104B400091E090932B0580932A0580911405909114
:104B500015058A52954071F4E0913D05F0913E05AE
:104B6000908180913F05809589238083109215055F
:104B7000109214050895CF931092FE031092FD0336
:104B800088EE93E0A0E0B0E08093FF0390930004F0
:104B9000A0930104B093020424E631E03093FC03B7
:104BA0002093FB0325EC30E03093080420930704A6
:104BB00024EC30E030930A042093090420EC30E028
:104BC00030930C0420930B0421EC30E030930E045E
:104BD00020930D0422EC30E03093100420930F0456
:104BE00026EC30E030931204209311041092140448
:104BF00010921504109216041092170410929B0440
:104C000010929A0480939C0490939D04A0939E0418
:104C1000B0939F0426E731E03093990420939804E1
:104C20001092EF041092F0041092F1041092F2042A
:104C30001092F3041092F4041092F5041092F6040A
:104C400027E02093ED041092EE041092E2041092FB
:104C5000E3041092E4041092E5041092E60410922A
:104C6000E7041092E8041092E90426E02093E0049F
:104C70001092E1042EE02093D90429E02093DA0475
:104C800028E02093DB04109216051092170510926D
:104C900018051092190510921A0510921B05109212
:104CA0001C0510921D0510921E0510921F051092F2
:104CB00020051092210510922205109223051092D2
:104CC00024051092250510922605109227051092B2
:104CD00028051092290510922D0510922C0580931D
:104CE0002E0590932F05A0933005B093310586E9EA
:104CF00091E090932B0580932A0510924105109224
:104D000040051092430510924205109245051092FD
:104D100044051092470510924605609148056E7F44
:104D20006D7F609348056695617081E0682783E038
:104D30000E94180B61E083E00E94460BECE8F4E16E
:104D4000E491E0933A05E8E7F4E1E491F0E0EE0F56
:104D5000FF1FE559FB4E8591949190933C058093FC
:104D60003B0560E082E00E94460B8091480581FD92
:104D700004C061E082E00E94180B82E08093360557
:104D8000EBE8F4E1E491E0933705E7E7F4E1E4913F
:104D9000F0E0EE0FFF1FEF59FB4E85919491909339
:104DA0003905809338051092490510924A051092F2
:104DB000C3041092C4041092C5041092C604109249
:104DC000C7041092C8041092C9041092CA04109229
:104DD000CB041092CC041092CD041092CE04109209
:104DE000CF041092D0041092D1041092D2041092E9
:104DF000D3041092D4041092D5041092D6041092C9
:104E0000A4041092A5041092A6041092A704109274
:104E1000A8041092A9041092AA041092AB04109254
:104E2000AC041092AD041092AE041092AF04109234
:104E3000B0041092B1041092B2041092B304109214
:104E4000B4041092B5041092B6041092B7041092F4
:104E5000B804C1E0C093B9041092BA041092BB0424
:104E60001092BC041092BD041092BE041092BF04B4
:104E70001092C0041092C10464EB71E08DE495E0DF
:104E80000E94FA1864EB71E08EE095E00E94FA1837
:104E90001092FD041092FC04109206051092070572
:104EA000109209051092080510920A05C0930B058F
:104EB00088E891E09093FB048093FA04CF910895E1
:104EC000CF93DF93CDB7DEB765970FB6F894DEBF0B
:104ED0000FBECDBF789484B5826084BD84B58160F7
:104EE00084BD85B5826085BD85B5816085BD8091B5
:104EF0006E00816080936E0010928100809181002D
:104F00008260809381008091810081608093810024
:104F1000809180008160809380008091B1008460E6
:104F20008093B1008091B00081608093B000809147
:104F30007A00846080937A0080917A008260809306
:104F40007A0080917A00816080937A0080917A0063
:104F5000806880937A001092C100E0910B04F09178
:104F60000C0482E08083E0910704F0910804108231
:104F7000E0910904F0910A048FEC808310921304ED
:104F8000E0910F04F091100486E08083E0910D041D
:104F9000F0910E04808180618083E0910D04F09196
:104FA0000E04808188608083E0910D04F0910E04EE
:104FB000808180688083E0910D04F0910E048081EF
:104FC0008F7D808310924505109244051092430511
:104FD0001092420510924105109240058DE991E032
:104FE000909347058093460590913605963108F0D9
:104FF00047C02DEB30E030934105209340052BE96D
:1050000031E030934305209342052CE231E03093A8
:105010004505209344052091680084E0983048F0CD
:1050200031E09E3008F430E081E001C0880F3A950D
:10503000EAF7822B809368002DE630E0983050F03C
:105040002BE630E09E3030F02CE630E0963110F068
:1050500030E020E030933E0520933D05292F30E0DD
:10506000983008F0ACC081E001C0880F9A95EAF74B
:1050700080933F0580914605909147050197F1F790
:105080008091440590914505892B49F1E0911405E3
:10509000F091150525E0EA32F20709F1309739F071
:1050A000A389B4899C918589809589238C9380916B
:1050B00048058E7F809348051092830310928203E7
:1050C0008AE295E09093150580931405E0913D05E3
:1050D000F0913E05808190913F05892B80838FE57B
:1050E00095E00E9475196091EE048091ED040E9494
:1050F000460B6091E1048091E0040E94460B809190
:10510000B80490E00E943A31D82EEE24E394811145
:1051100001C0E12CE092BA048091B90490E00E94B1
:105120003A31FF24F394811101C0F12CF092BB04B9
:1051300010928903109288031092D8031092FA03F8
:105140000E9480108CE29CE09093870380938603FA
:105150008DE29CE090938503809384038CE08093A0
:10516000B80010920D058CE380930C051092FE049C
:105170001092FF04E8EEF2E085919491B82EEAEEE9
:10518000F2E0C490EBEEF2E0E491E0930005ECEE87
:10519000F2E0E491E0930105EDEEF2E0E491E093BA
:1051A00002058C01802F8B198C15B0F4F8016491E5
:1051B0008AEF94E00E94280E0F5F1F4FF3CF9E30BE
:1051C00040F42850310981E001C0880F2A95EAF7A0
:1051D0004FCF2E503109F7CF0E949C0E0E949C0E9B
:1051E0008DEF90E00E947B0A60ED77E080E090E038
:1051F0000E94A70B40E064E18AEF94E00E94550E04
:105200006EE475E0CE0101960E941721CE01019651
:105210000E946819CE0101960E94EA1864EF71E0BD
:1052200080E090E00E94A70B60E08091D9040E948A
:10523000460B60E08091DA040E94460B60E08091AA
:10524000DB040E94460B0E94DF0A4B015C014AE02E
:1052500060E08AEF94E00E94550E64E475E0CE01B0
:1052600001960E941721CE0101960E946819CE0175
:1052700001960E94EA1820E030E0A901C501B401BE
:105280000E94163060E472E0811102C063E472E0B3
:10529000CE0101960E94FA18CE0101960E9468196B
:1052A000CE0101960E94EA188AEF94E00E946419E8
:1052B00064EF71E080E090E00E94A70B44E160E0C1
:1052C0008AEF94E00E94550E67E375E0CE010196E7
:1052D0000E941721CE0101960E946819CE01019605
:1052E0000E94EA18812C912C540183940E94D90BBE
:1052F00000911E0510911F05209120053091210578
:10530000601B710B820B930B64367105810591054F
:1053100068F30E94D90B60931E0570931F0580935C
:10532000200590932105CE0101960E945B18CE01C5
:1053300002960E94651B8C01892B09F0A5C260E7CB
:1053400072E0CE010B960E94F51B0E943E178093DF
:105350004B0569E772E0CE010B960E94F51B0E9497
:105360003E1780934C0565E872E0CE010B960E94D3
:10537000F51B0E943E178093490580914B058823B9
:10538000D1F1AE014E5F5F4F6DE872E0CE010B963A
:105390000E94C01BFC01892B29F0948190789660B3
:1053A0009483E082AE014E5F5F4F63E972E0CE010D
:1053B0000B960E94C01BFC01892B29F094819078E8
:1053C00096609483F082AE014E5F5F4F6DE972E0AC
:1053D000CE010B960E94C01BFC01892B41F09481E9
:1053E00090789A60948380829182A282B382CE0167
:1053F0000B960E94AE1D80914C05811105C08091D5
:105400004905882309F44DC2CE0101960E94F21885
:1054100067E572E0D11002C06EE572E0CE01019640
:105420000E94FA18CE0101960E946819CE010196D9
:105430000E94EA1882E295E00E94751968EB7BE011
:1054400080E090E00E94A70B0E949C0E8CE393E00A
:105450000E947B0A44E163E28AEF94E00E94550EC9
:1054600067EA8AEF94E00E94280E62E373E0CE01BF
:1054700001960E941721CE0101960E946819CE0163
:1054800001960E94EA1844E16AE08AEF94E00E94E3
:10549000550E6FE173E0CE0101960E941721CE01F7
:1054A00001960E946819CE0101960E94EA1844E113
:1054B00064E18AEF94E00E94550E60E173E0CE0152
:1054C00001960E941721CE0101960E946819CE0113
:1054D00001960E94EA1866EB71E0CE0101960E94E7
:1054E000FA18CE0101960E946819CE0101960E9419
:1054F000EA1844E16EE18AEF94E00E94550E82E0E2
:1055000080930B0505E010E06EE073E0CE0101969C
:105510000E941721CE0101960E945B0CCE010196DC
:105520000E94EA1868EE73E080E090E00E94A70B0A
:105530000150110949F766EA8AEF94E00E94280EAB
:1055400081E080930B0581E093E00E9475190E9431
:105550003822812C912C54018394809148019091A0
:105560004901019611F40E943822809148019091DE
:105570004901892B09F057C10E94D90B00918E0374
:1055800010918F032091900330919103601B710B58
:10559000820B930B643F71408105910508F49AC01A
:1055A0000E94D90B60938E0370938F0380939003B6
:1055B000909391030E94DF0A60938A0370938B0398
:1055C00080938C0390938D030E949C0E83E895E05A
:1055D0000E947B0A40E060E08AEF94E00E94550E52
:1055E0006BE775E0CE0101960E941721CE0101966E
:1055F0000E945B0CCE0101960E94EA181A82198261
:105600001C821B821E821D826DE475E0CE01019614
:105610000E94D318CE0101960E946819CE0101960E
:105620000E94EA184AE064E18AEF94E00E94550E75
:1056300060E775E0CE0101960E941721CE01019628
:105640000E946819CE0101960E94EA1882E08093B8
:105650000B05C0908A03D0908B03E0908C03F090F0
:105660008D0320E030E0A901C701B6010E94163089
:10567000882369F1A7019601C701B6010E947E3215
:105680006DEA72E081111BC026013701E89477F8BA
:105690002FEF3FEF4FE75FE7C301B2010E947E3279
:1056A000811104C12FEF3FEF4FE75FE7C301B20164
:1056B0000E94163018160CF0F9C061EB72E08AEF08
:1056C00094E00E940F198AEF94E00E94641981E02F
:1056D00080930B05C0908A03D0908B03E0908C03DD
:1056E000F0908D030E94D90B00911A0510911B05B3
:1056F00020911C0530911D05601B710B820B930BD3
:10570000623371058105910508F48DC0CE010196C3
:105710000E945B180E94D90B60931A0570931B05B9
:1057200080931C0590931D05CE0102960E94651B77
:105730008C01892B09F031C165E872E0CE010B962E
:105740000E94F51B0E943E1780934905811118C0E5
:10575000AE014E5F5F4F69EB72E0CE010B960E9487
:10576000C01BFC01892B41F0948190789A6094834E
:1057700080829182A282B382CE010B960E94AE1DDE
:1057800080914905882309F44AC063EB72E0CE0199
:105790000B960E94F51B8C0164EB71E0CE014096E4
:1057A0000E94FA18BE01605F7F4FC8010E948020EE
:1057B000BE01605F7F4F8DE495E00E94D318AE017B
:1057C0004E5F5F4F64EC72E0CE010B960E94C01BEF
:1057D000FC01892B41F0948190789C609483C08275
:1057E000D182E282F382AE014E5F5F4F6BEC72E0DA
:1057F000CE010B960E94C01BFC01892B41F09481C5
:1058000090789A60948380829182A282B382CE0142
:105810000B960E94AE1DCE0140960E94EA18CE0162
:1058200001960E94F21880914801909149010197D8
:1058300009F03FC322E0E22EFF24F394CC24CA9463
:10584000DC2C80914A0190914B018F3F980709F021
:10585000B2C00E944F2164E170E080E090E00E94BD
:10586000A70B80EE94E00E94E50B8093C204823087
:1058700040F38FEF9FEF90934B0180934A0110927A
:10588000C2040E944F21D8CF8EEE92E00E94240DD8
:10589000F801EE0FFF1FE251F54F859194910E94A0
:1058A0007519CE0101960E94F21820CD2FEF3FEF1F
:1058B0004FE75FE4C701B6010E94793218161CF465
:1058C00065EB72E0FCCE2FEF3FEF4FE75FECC701D7
:1058D000B6010E94163087FDF3CF20E030E0A90129
:1058E000C701B6010E94163087FF09C06DE28AEF3A
:1058F00094E00E94B70EF7FAF094F7F8F0942AE0DB
:1059000037ED43EA5BE3C701B6010E94DE312B01AC
:105910003C010E944A326B017C010E941B309B01BA
:10592000AC01C301B2010E94DD312B013C014AE010
:10593000C701B6010E941E196EE28AEF94E00E9430
:10594000B70E20E030E040E251E4C301B2010E9412
:105950007C302B013C010E944A326B01F12CE12C7E
:105960004AE0C701B6010E941E19C701B6010E9494
:105970001B309B01AC01C301B2010E94DD3120E06C
:1059800030E040E251E40E947C300E944A3290E0D4
:1059900080E04AE00E941E1996CE89EE99E00E94AE
:1059A000240DF801EE0FFF1FE251F54F8591949100
:1059B0000E94751934CF009709F0E2C00E94D90BFC
:1059C0000091260510912705209128053091290581
:1059D000601B710B820B930B62337105810591057E
:1059E00008F443C00E94D90B6093260570932705E5
:1059F0008093280590932905CE0101960E945B189B
:105A0000CE0102960E94651B8C01892BC9F565E8C1
:105A100072E0CE010B960E94F51B0E943E17809308
:105A200049058823F1F06AED72E0CE010B960E94E1
:105A3000F51B8C0164EB71E0CE0140960E94FA18D0
:105A4000BE01605F7F4FC8010E948020BE01605F81
:105A50007F4F8EE095E00E94D318CE0140960E94C1
:105A6000EA18CE0101960E94F2188091E0040E948B
:105A7000B60A813099F4D0924901C0924801EBCE28
:105A80008AEF9AE00E94240DF801EE0FFF1FE25109
:105A9000F54F859194910E947519E3CF0E94D90B1F
:105AA0000091000110910101209102013091030148
:105AB000601B710B820B930B683E7340810591054F
:105AC00008F47CCF0E94D90B609300017093010110
:105AD00080930201909303010E949C0E86E792E15D
